:100000000C9434000C9449000C9449000C94490061
:100010000C9449000C9449000C9449000C9449003C
:100020000C9449000C9449000C9449000C9449002C
:100030000C9449000C9449000C9449000C9449001C
:100040000C9449000C9449000C9449000C9449000C
:100050000C9449000C9449000C9449000C944900FC
:100060000C9449000C94490011241FBECFEFD8E036
:10007000DEBFCDBF11E0A0E0B1E0EAEEF0E002C0EB
:1000800005900D92A830B107D9F70E944B000C944F
:1000900073000C940000CDB7DEB728970FB6F89424
:1000A000DEBF0FBECDBF88E0E0E0F1E0DE011196DB
:1000B00001900D928A95E1F787E68093C400109233
:1000C000C50088E08093C100FE013196CE010996FB
:1000D00021913091C00035FFFCCF2093C600E81776
:0A00E000F907B1F7FFCFF894FFCF46
:0800EA0068656C6C6F0D0A00E3
:00000001FF
